{
  "_format": "hh-sol-artifact-1",
  "contractName": "NFT",
  "sourceName": "contracts/NFT.sol",
  "abi": [
    {
      "inputs": [
        {
          "internalType": "address",
          "name": "marketplaceaddress",
          "type": "address"
        }
      ],
      "stateMutability": "nonpayable",
      "type": "constructor"
    },
    {
      "anonymous": false,
      "inputs": [
        {
          "indexed": true,
          "internalType": "address",
          "name": "owner",
          "type": "address"
        },
        {
          "indexed": true,
          "internalType": "address",
          "name": "approved",
          "type": "address"
        },
        {
          "indexed": true,
          "internalType": "uint256",
          "name": "tokenId",
          "type": "uint256"
        }
      ],
      "name": "Approval",
      "type": "event"
    },
    {
      "anonymous": false,
      "inputs": [
        {
          "indexed": true,
          "internalType": "address",
          "name": "owner",
          "type": "address"
        },
        {
          "indexed": true,
          "internalType": "address",
          "name": "operator",
          "type": "address"
        },
        {
          "indexed": false,
          "internalType": "bool",
          "name": "approved",
          "type": "bool"
        }
      ],
      "name": "ApprovalForAll",
      "type": "event"
    },
    {
      "anonymous": false,
      "inputs": [
        {
          "indexed": true,
          "internalType": "address",
          "name": "previousOwner",
          "type": "address"
        },
        {
          "indexed": true,
          "internalType": "address",
          "name": "newOwner",
          "type": "address"
        }
      ],
      "name": "OwnershipTransferred",
      "type": "event"
    },
    {
      "anonymous": false,
      "inputs": [
        {
          "indexed": true,
          "internalType": "address",
          "name": "from",
          "type": "address"
        },
        {
          "indexed": true,
          "internalType": "address",
          "name": "to",
          "type": "address"
        },
        {
          "indexed": true,
          "internalType": "uint256",
          "name": "tokenId",
          "type": "uint256"
        }
      ],
      "name": "Transfer",
      "type": "event"
    },
    {
      "inputs": [
        {
          "internalType": "address",
          "name": "to",
          "type": "address"
        },
        {
          "internalType": "uint256",
          "name": "tokenId",
          "type": "uint256"
        }
      ],
      "name": "approve",
      "outputs": [],
      "stateMutability": "nonpayable",
      "type": "function"
    },
    {
      "inputs": [
        {
          "internalType": "address",
          "name": "owner",
          "type": "address"
        }
      ],
      "name": "balanceOf",
      "outputs": [
        {
          "internalType": "uint256",
          "name": "",
          "type": "uint256"
        }
      ],
      "stateMutability": "view",
      "type": "function"
    },
    {
      "inputs": [
        {
          "internalType": "uint256",
          "name": "tokenId",
          "type": "uint256"
        }
      ],
      "name": "burn",
      "outputs": [],
      "stateMutability": "nonpayable",
      "type": "function"
    },
    {
      "inputs": [
        {
          "internalType": "string",
          "name": "tokenURI",
          "type": "string"
        }
      ],
      "name": "createToken",
      "outputs": [
        {
          "internalType": "uint256",
          "name": "",
          "type": "uint256"
        }
      ],
      "stateMutability": "nonpayable",
      "type": "function"
    },
    {
      "inputs": [
        {
          "internalType": "uint256",
          "name": "tokenId",
          "type": "uint256"
        }
      ],
      "name": "getApproved",
      "outputs": [
        {
          "internalType": "address",
          "name": "",
          "type": "address"
        }
      ],
      "stateMutability": "view",
      "type": "function"
    },
    {
      "inputs": [
        {
          "internalType": "address",
          "name": "owner",
          "type": "address"
        },
        {
          "internalType": "address",
          "name": "operator",
          "type": "address"
        }
      ],
      "name": "isApprovedForAll",
      "outputs": [
        {
          "internalType": "bool",
          "name": "",
          "type": "bool"
        }
      ],
      "stateMutability": "view",
      "type": "function"
    },
    {
      "inputs": [],
      "name": "name",
      "outputs": [
        {
          "internalType": "string",
          "name": "",
          "type": "string"
        }
      ],
      "stateMutability": "view",
      "type": "function"
    },
    {
      "inputs": [],
      "name": "owner",
      "outputs": [
        {
          "internalType": "address",
          "name": "",
          "type": "address"
        }
      ],
      "stateMutability": "view",
      "type": "function"
    },
    {
      "inputs": [
        {
          "internalType": "uint256",
          "name": "tokenId",
          "type": "uint256"
        }
      ],
      "name": "ownerOf",
      "outputs": [
        {
          "internalType": "address",
          "name": "",
          "type": "address"
        }
      ],
      "stateMutability": "view",
      "type": "function"
    },
    {
      "inputs": [],
      "name": "renounceOwnership",
      "outputs": [],
      "stateMutability": "nonpayable",
      "type": "function"
    },
    {
      "inputs": [
        {
          "internalType": "address",
          "name": "to",
          "type": "address"
        },
        {
          "internalType": "string",
          "name": "uri",
          "type": "string"
        }
      ],
      "name": "safeMint",
      "outputs": [],
      "stateMutability": "nonpayable",
      "type": "function"
    },
    {
      "inputs": [
        {
          "internalType": "address",
          "name": "from",
          "type": "address"
        },
        {
          "internalType": "address",
          "name": "to",
          "type": "address"
        },
        {
          "internalType": "uint256",
          "name": "tokenId",
          "type": "uint256"
        }
      ],
      "name": "safeTransferFrom",
      "outputs": [],
      "stateMutability": "nonpayable",
      "type": "function"
    },
    {
      "inputs": [
        {
          "internalType": "address",
          "name": "from",
          "type": "address"
        },
        {
          "internalType": "address",
          "name": "to",
          "type": "address"
        },
        {
          "internalType": "uint256",
          "name": "tokenId",
          "type": "uint256"
        },
        {
          "internalType": "bytes",
          "name": "data",
          "type": "bytes"
        }
      ],
      "name": "safeTransferFrom",
      "outputs": [],
      "stateMutability": "nonpayable",
      "type": "function"
    },
    {
      "inputs": [
        {
          "internalType": "address",
          "name": "operator",
          "type": "address"
        },
        {
          "internalType": "bool",
          "name": "approved",
          "type": "bool"
        }
      ],
      "name": "setApprovalForAll",
      "outputs": [],
      "stateMutability": "nonpayable",
      "type": "function"
    },
    {
      "inputs": [
        {
          "internalType": "bytes4",
          "name": "interfaceId",
          "type": "bytes4"
        }
      ],
      "name": "supportsInterface",
      "outputs": [
        {
          "internalType": "bool",
          "name": "",
          "type": "bool"
        }
      ],
      "stateMutability": "view",
      "type": "function"
    },
    {
      "inputs": [],
      "name": "symbol",
      "outputs": [
        {
          "internalType": "string",
          "name": "",
          "type": "string"
        }
      ],
      "stateMutability": "view",
      "type": "function"
    },
    {
      "inputs": [
        {
          "internalType": "uint256",
          "name": "tokenId",
          "type": "uint256"
        }
      ],
      "name": "tokenURI",
      "outputs": [
        {
          "internalType": "string",
          "name": "",
          "type": "string"
        }
      ],
      "stateMutability": "view",
      "type": "function"
    },
    {
      "inputs": [
        {
          "internalType": "address",
          "name": "from",
          "type": "address"
        },
        {
          "internalType": "address",
          "name": "to",
          "type": "address"
        },
        {
          "internalType": "uint256",
          "name": "tokenId",
          "type": "uint256"
        }
      ],
      "name": "transferFrom",
      "outputs": [],
      "stateMutability": "nonpayable",
      "type": "function"
    },
    {
      "inputs": [
        {
          "internalType": "address",
          "name": "newOwner",
          "type": "address"
        }
      ],
      "name": "transferOwnership",
      "outputs": [],
      "stateMutability": "nonpayable",
      "type": "function"
    }
  ],
  "bytecode": "0x60806040523480156200001157600080fd5b506040516200338738038062003387833981810160405281019062000037919062000327565b6040518060400160405280600781526020017f4d79546f6b656e000000000000000000000000000000000000000000000000008152506040518060400160405280600381526020017f4d544b00000000000000000000000000000000000000000000000000000000008152508160009080519060200190620000bb9291906200020d565b508060019080519060200190620000d49291906200020d565b505050620000f7620000eb6200013f60201b60201c565b6200014760201b60201c565b80600960006101000a81548173ffffffffffffffffffffffffffffffffffffffff021916908373ffffffffffffffffffffffffffffffffffffffff16021790555050620003be565b600033905090565b6000600760009054906101000a900473ffffffffffffffffffffffffffffffffffffffff16905081600760006101000a81548173ffffffffffffffffffffffffffffffffffffffff021916908373ffffffffffffffffffffffffffffffffffffffff1602179055508173ffffffffffffffffffffffffffffffffffffffff168173ffffffffffffffffffffffffffffffffffffffff167f8be0079c531659141344cd1fd0a4f28419497f9722a3daafe3b4186f6b6457e060405160405180910390a35050565b8280546200021b9062000388565b90600052602060002090601f0160209004810192826200023f57600085556200028b565b82601f106200025a57805160ff19168380011785556200028b565b828001600101855582156200028b579182015b828111156200028a5782518255916020019190600101906200026d565b5b5090506200029a91906200029e565b5090565b5b80821115620002b95760008160009055506001016200029f565b5090565b600080fd5b600073ffffffffffffffffffffffffffffffffffffffff82169050919050565b6000620002ef82620002c2565b9050919050565b6200030181620002e2565b81146200030d57600080fd5b50565b6000815190506200032181620002f6565b92915050565b60006020828403121562000340576200033f620002bd565b5b6000620003508482850162000310565b91505092915050565b7f4e487b7100000000000000000000000000000000000000000000000000000000600052602260045260246000fd5b60006002820490506001821680620003a157607f821691505b60208210811415620003b857620003b762000359565b5b50919050565b612fb980620003ce6000396000f3fe608060405234801561001057600080fd5b50600436106101215760003560e01c806370a08231116100ad578063b88d4fde11610071578063b88d4fde14610306578063c87b56dd14610322578063d204c45e14610352578063e985e9c51461036e578063f2fde38b1461039e57610121565b806370a0823114610274578063715018a6146102a45780638da5cb5b146102ae57806395d89b41146102cc578063a22cb465146102ea57610121565b806323b872dd116100f457806323b872dd146101c057806342842e0e146101dc57806342966c68146101f857806345576f94146102145780636352211e1461024457610121565b806301ffc9a71461012657806306fdde0314610156578063081812fc14610174578063095ea7b3146101a4575b600080fd5b610140600480360381019061013b9190611e42565b6103ba565b60405161014d9190611e8a565b60405180910390f35b61015e61049c565b60405161016b9190611f3e565b60405180910390f35b61018e60048036038101906101899190611f96565b61052e565b60405161019b9190612004565b60405180910390f35b6101be60048036038101906101b9919061204b565b610574565b005b6101da60048036038101906101d5919061208b565b61068c565b005b6101f660048036038101906101f1919061208b565b6106ec565b005b610212600480360381019061020d9190611f96565b61070c565b005b61022e60048036038101906102299190612213565b610768565b60405161023b919061226b565b60405180910390f35b61025e60048036038101906102599190611f96565b6107d5565b60405161026b9190612004565b60405180910390f35b61028e60048036038101906102899190612286565b610887565b60405161029b919061226b565b60405180910390f35b6102ac61093f565b005b6102b6610953565b6040516102c39190612004565b60405180910390f35b6102d461097d565b6040516102e19190611f3e565b60405180910390f35b61030460048036038101906102ff91906122df565b610a0f565b005b610320600480360381019061031b91906123c0565b610a25565b005b61033c60048036038101906103379190611f96565b610a87565b6040516103499190611f3e565b60405180910390f35b61036c60048036038101906103679190612443565b610a99565b005b6103886004803603810190610383919061249f565b610ad2565b6040516103959190611e8a565b60405180910390f35b6103b860048036038101906103b39190612286565b610b66565b005b60007f80ac58cd000000000000000000000000000000000000000000000000000000007bffffffffffffffffffffffffffffffffffffffffffffffffffffffff1916827bffffffffffffffffffffffffffffffffffffffffffffffffffffffff1916148061048557507f5b5e139f000000000000000000000000000000000000000000000000000000007bffffffffffffffffffffffffffffffffffffffffffffffffffffffff1916827bffffffffffffffffffffffffffffffffffffffffffffffffffffffff1916145b80610495575061049482610bea565b5b9050919050565b6060600080546104ab9061250e565b80601f01602080910402602001604051908101604052809291908181526020018280546104d79061250e565b80156105245780601f106104f957610100808354040283529160200191610524565b820191906000526020600020905b81548152906001019060200180831161050757829003601f168201915b5050505050905090565b600061053982610c54565b6004600083815260200190815260200160002060009054906101000a900473ffffffffffffffffffffffffffffffffffffffff169050919050565b600061057f826107d5565b90508073ffffffffffffffffffffffffffffffffffffffff168373ffffffffffffffffffffffffffffffffffffffff1614156105f0576040517f08c379a00000000000000000000000000000000000000000000000000000000081526004016105e7906125b2565b60405180910390fd5b8073ffffffffffffffffffffffffffffffffffffffff1661060f610c9f565b73ffffffffffffffffffffffffffffffffffffffff16148061063e575061063d81610638610c9f565b610ad2565b5b61067d576040517f08c379a000000000000000000000000000000000000000000000000000000000815260040161067490612644565b60405180910390fd5b6106878383610ca7565b505050565b61069d610697610c9f565b82610d60565b6106dc576040517f08c379a00000000000000000000000000000000000000000000000000000000081526004016106d3906126d6565b60405180910390fd5b6106e7838383610df5565b505050565b61070783838360405180602001604052806000815250610a25565b505050565b61071d610717610c9f565b82610d60565b61075c576040517f08c379a0000000000000000000000000000000000000000000000000000000008152600401610753906126d6565b60405180910390fd5b6107658161105c565b50565b60006107746008611068565b6000610780600861107e565b905061079533610790600861107e565b61108c565b61079f8184611266565b6107cc600960009054906101000a900473ffffffffffffffffffffffffffffffffffffffff166001610a0f565b80915050919050565b6000806002600084815260200190815260200160002060009054906101000a900473ffffffffffffffffffffffffffffffffffffffff169050600073ffffffffffffffffffffffffffffffffffffffff168173ffffffffffffffffffffffffffffffffffffffff16141561087e576040517f08c379a000000000000000000000000000000000000000000000000000000000815260040161087590612742565b60405180910390fd5b80915050919050565b60008073ffffffffffffffffffffffffffffffffffffffff168273ffffffffffffffffffffffffffffffffffffffff1614156108f8576040517f08c379a00000000000000000000000000000000000000000000000000000000081526004016108ef906127d4565b60405180910390fd5b600360008373ffffffffffffffffffffffffffffffffffffffff1673ffffffffffffffffffffffffffffffffffffffff168152602001908152602001600020549050919050565b6109476112da565b6109516000611358565b565b6000600760009054906101000a900473ffffffffffffffffffffffffffffffffffffffff16905090565b60606001805461098c9061250e565b80601f01602080910402602001604051908101604052809291908181526020018280546109b89061250e565b8015610a055780601f106109da57610100808354040283529160200191610a05565b820191906000526020600020905b8154815290600101906020018083116109e857829003601f168201915b5050505050905090565b610a21610a1a610c9f565b838361141e565b5050565b610a36610a30610c9f565b83610d60565b610a75576040517f08c379a0000000000000000000000000000000000000000000000000000000008152600401610a6c906126d6565b60405180910390fd5b610a818484848461158b565b50505050565b6060610a92826115e7565b9050919050565b610aa16112da565b6000610aad600861107e565b9050610ab96008611068565b610ac383826116fa565b610acd8183611266565b505050565b6000600560008473ffffffffffffffffffffffffffffffffffffffff1673ffffffffffffffffffffffffffffffffffffffff16815260200190815260200160002060008373ffffffffffffffffffffffffffffffffffffffff1673ffffffffffffffffffffffffffffffffffffffff16815260200190815260200160002060009054906101000a900460ff16905092915050565b610b6e6112da565b600073ffffffffffffffffffffffffffffffffffffffff168173ffffffffffffffffffffffffffffffffffffffff161415610bde576040517f08c379a0000000000000000000000000000000000000000000000000000000008152600401610bd590612866565b60405180910390fd5b610be781611358565b50565b60007f01ffc9a7000000000000000000000000000000000000000000000000000000007bffffffffffffffffffffffffffffffffffffffffffffffffffffffff1916827bffffffffffffffffffffffffffffffffffffffffffffffffffffffff1916149050919050565b610c5d81611718565b610c9c576040517f08c379a0000000000000000000000000000000000000000000000000000000008152600401610c9390612742565b60405180910390fd5b50565b600033905090565b816004600083815260200190815260200160002060006101000a81548173ffffffffffffffffffffffffffffffffffffffff021916908373ffffffffffffffffffffffffffffffffffffffff160217905550808273ffffffffffffffffffffffffffffffffffffffff16610d1a836107d5565b73ffffffffffffffffffffffffffffffffffffffff167f8c5be1e5ebec7d5bd14f71427d1e84f3dd0314c0f7b2291e5b200ac8c7c3b92560405160405180910390a45050565b600080610d6c836107d5565b90508073ffffffffffffffffffffffffffffffffffffffff168473ffffffffffffffffffffffffffffffffffffffff161480610dae5750610dad8185610ad2565b5b80610dec57508373ffffffffffffffffffffffffffffffffffffffff16610dd48461052e565b73ffffffffffffffffffffffffffffffffffffffff16145b91505092915050565b8273ffffffffffffffffffffffffffffffffffffffff16610e15826107d5565b73ffffffffffffffffffffffffffffffffffffffff1614610e6b576040517f08c379a0000000000000000000000000000000000000000000000000000000008152600401610e62906128f8565b60405180910390fd5b600073ffffffffffffffffffffffffffffffffffffffff168273ffffffffffffffffffffffffffffffffffffffff161415610edb576040517f08c379a0000000000000000000000000000000000000000000000000000000008152600401610ed29061298a565b60405180910390fd5b610ee6838383611784565b610ef1600082610ca7565b6001600360008573ffffffffffffffffffffffffffffffffffffffff1673ffffffffffffffffffffffffffffffffffffffff1681526020019081526020016000206000828254610f4191906129d9565b925050819055506001600360008473ffffffffffffffffffffffffffffffffffffffff1673ffffffffffffffffffffffffffffffffffffffff1681526020019081526020016000206000828254610f989190612a0d565b92505081905550816002600083815260200190815260200160002060006101000a81548173ffffffffffffffffffffffffffffffffffffffff021916908373ffffffffffffffffffffffffffffffffffffffff160217905550808273ffffffffffffffffffffffffffffffffffffffff168473ffffffffffffffffffffffffffffffffffffffff167fddf252ad1be2c89b69c2b068fc378daa952ba7f163c4a11628f55a4df523b3ef60405160405180910390a4611057838383611789565b505050565b6110658161178e565b50565b6001816000016000828254019250508190555050565b600081600001549050919050565b600073ffffffffffffffffffffffffffffffffffffffff168273ffffffffffffffffffffffffffffffffffffffff1614156110fc576040517f08c379a00000000000000000000000000000000000000000000000000000000081526004016110f390612aaf565b60405180910390fd5b61110581611718565b15611145576040517f08c379a000000000000000000000000000000000000000000000000000000000815260040161113c90612b1b565b60405180910390fd5b61115160008383611784565b6001600360008473ffffffffffffffffffffffffffffffffffffffff1673ffffffffffffffffffffffffffffffffffffffff16815260200190815260200160002060008282546111a19190612a0d565b92505081905550816002600083815260200190815260200160002060006101000a81548173ffffffffffffffffffffffffffffffffffffffff021916908373ffffffffffffffffffffffffffffffffffffffff160217905550808273ffffffffffffffffffffffffffffffffffffffff16600073ffffffffffffffffffffffffffffffffffffffff167fddf252ad1be2c89b69c2b068fc378daa952ba7f163c4a11628f55a4df523b3ef60405160405180910390a461126260008383611789565b5050565b61126f82611718565b6112ae576040517f08c379a00000000000000000000000000000000000000000000000000000000081526004016112a590612bad565b60405180910390fd5b806006600084815260200190815260200160002090805190602001906112d5929190611cf3565b505050565b6112e2610c9f565b73ffffffffffffffffffffffffffffffffffffffff16611300610953565b73ffffffffffffffffffffffffffffffffffffffff1614611356576040517f08c379a000000000000000000000000000000000000000000000000000000000815260040161134d90612c19565b60405180910390fd5b565b6000600760009054906101000a900473ffffffffffffffffffffffffffffffffffffffff16905081600760006101000a81548173ffffffffffffffffffffffffffffffffffffffff021916908373ffffffffffffffffffffffffffffffffffffffff1602179055508173ffffffffffffffffffffffffffffffffffffffff168173ffffffffffffffffffffffffffffffffffffffff167f8be0079c531659141344cd1fd0a4f28419497f9722a3daafe3b4186f6b6457e060405160405180910390a35050565b8173ffffffffffffffffffffffffffffffffffffffff168373ffffffffffffffffffffffffffffffffffffffff16141561148d576040517f08c379a000000000000000000000000000000000000000000000000000000000815260040161148490612c85565b60405180910390fd5b80600560008573ffffffffffffffffffffffffffffffffffffffff1673ffffffffffffffffffffffffffffffffffffffff16815260200190815260200160002060008473ffffffffffffffffffffffffffffffffffffffff1673ffffffffffffffffffffffffffffffffffffffff16815260200190815260200160002060006101000a81548160ff0219169083151502179055508173ffffffffffffffffffffffffffffffffffffffff168373ffffffffffffffffffffffffffffffffffffffff167f17307eab39ab6107e8899845ad3d59bd9653f200f220920489ca2b5937696c318360405161157e9190611e8a565b60405180910390a3505050565b611596848484610df5565b6115a2848484846117e1565b6115e1576040517f08c379a00000000000000000000000000000000000000000000000000000000081526004016115d890612d17565b60405180910390fd5b50505050565b60606115f282610c54565b60006006600084815260200190815260200160002080546116129061250e565b80601f016020809104026020016040519081016040528092919081815260200182805461163e9061250e565b801561168b5780601f106116605761010080835404028352916020019161168b565b820191906000526020600020905b81548152906001019060200180831161166e57829003601f168201915b50505050509050600061169c611978565b90506000815114156116b25781925050506116f5565b6000825111156116e75780826040516020016116cf929190612d73565b604051602081830303815290604052925050506116f5565b6116f08461198f565b925050505b919050565b6117148282604051806020016040528060008152506119f7565b5050565b60008073ffffffffffffffffffffffffffffffffffffffff166002600084815260200190815260200160002060009054906101000a900473ffffffffffffffffffffffffffffffffffffffff1673ffffffffffffffffffffffffffffffffffffffff1614159050919050565b505050565b505050565b61179781611a52565b60006006600083815260200190815260200160002080546117b79061250e565b9050146117de576006600082815260200190815260200160002060006117dd9190611d79565b5b50565b60006118028473ffffffffffffffffffffffffffffffffffffffff16611b6f565b1561196b578373ffffffffffffffffffffffffffffffffffffffff1663150b7a0261182b610c9f565b8786866040518563ffffffff1660e01b815260040161184d9493929190612dec565b602060405180830381600087803b15801561186757600080fd5b505af192505050801561189857506040513d601f19601f820116820180604052508101906118959190612e4d565b60015b61191b573d80600081146118c8576040519150601f19603f3d011682016040523d82523d6000602084013e6118cd565b606091505b50600081511415611913576040517f08c379a000000000000000000000000000000000000000000000000000000000815260040161190a90612d17565b60405180910390fd5b805181602001fd5b63150b7a0260e01b7bffffffffffffffffffffffffffffffffffffffffffffffffffffffff1916817bffffffffffffffffffffffffffffffffffffffffffffffffffffffff191614915050611970565b600190505b949350505050565b606060405180602001604052806000815250905090565b606061199a82610c54565b60006119a4611978565b905060008151116119c457604051806020016040528060008152506119ef565b806119ce84611b92565b6040516020016119df929190612d73565b6040516020818303038152906040525b915050919050565b611a01838361108c565b611a0e60008484846117e1565b611a4d576040517f08c379a0000000000000000000000000000000000000000000000000000000008152600401611a4490612d17565b60405180910390fd5b505050565b6000611a5d826107d5565b9050611a6b81600084611784565b611a76600083610ca7565b6001600360008373ffffffffffffffffffffffffffffffffffffffff1673ffffffffffffffffffffffffffffffffffffffff1681526020019081526020016000206000828254611ac691906129d9565b925050819055506002600083815260200190815260200160002060006101000a81549073ffffffffffffffffffffffffffffffffffffffff021916905581600073ffffffffffffffffffffffffffffffffffffffff168273ffffffffffffffffffffffffffffffffffffffff167fddf252ad1be2c89b69c2b068fc378daa952ba7f163c4a11628f55a4df523b3ef60405160405180910390a4611b6b81600084611789565b5050565b6000808273ffffffffffffffffffffffffffffffffffffffff163b119050919050565b60606000821415611bda576040518060400160405280600181526020017f30000000000000000000000000000000000000000000000000000000000000008152509050611cee565b600082905060005b60008214611c0c578080611bf590612e7a565b915050600a82611c059190612ef2565b9150611be2565b60008167ffffffffffffffff811115611c2857611c276120e8565b5b6040519080825280601f01601f191660200182016040528015611c5a5781602001600182028036833780820191505090505b5090505b60008514611ce757600182611c7391906129d9565b9150600a85611c829190612f23565b6030611c8e9190612a0d565b60f81b818381518110611ca457611ca3612f54565b5b60200101907effffffffffffffffffffffffffffffffffffffffffffffffffffffffffffff1916908160001a905350600a85611ce09190612ef2565b9450611c5e565b8093505050505b919050565b828054611cff9061250e565b90600052602060002090601f016020900481019282611d215760008555611d68565b82601f10611d3a57805160ff1916838001178555611d68565b82800160010185558215611d68579182015b82811115611d67578251825591602001919060010190611d4c565b5b509050611d759190611db9565b5090565b508054611d859061250e565b6000825580601f10611d975750611db6565b601f016020900490600052602060002090810190611db59190611db9565b5b50565b5b80821115611dd2576000816000905550600101611dba565b5090565b6000604051905090565b600080fd5b600080fd5b60007fffffffff0000000000000000000000000000000000000000000000000000000082169050919050565b611e1f81611dea565b8114611e2a57600080fd5b50565b600081359050611e3c81611e16565b92915050565b600060208284031215611e5857611e57611de0565b5b6000611e6684828501611e2d565b91505092915050565b60008115159050919050565b611e8481611e6f565b82525050565b6000602082019050611e9f6000830184611e7b565b92915050565b600081519050919050565b600082825260208201905092915050565b60005b83811015611edf578082015181840152602081019050611ec4565b83811115611eee576000848401525b50505050565b6000601f19601f8301169050919050565b6000611f1082611ea5565b611f1a8185611eb0565b9350611f2a818560208601611ec1565b611f3381611ef4565b840191505092915050565b60006020820190508181036000830152611f588184611f05565b905092915050565b6000819050919050565b611f7381611f60565b8114611f7e57600080fd5b50565b600081359050611f9081611f6a565b92915050565b600060208284031215611fac57611fab611de0565b5b6000611fba84828501611f81565b91505092915050565b600073ffffffffffffffffffffffffffffffffffffffff82169050919050565b6000611fee82611fc3565b9050919050565b611ffe81611fe3565b82525050565b60006020820190506120196000830184611ff5565b92915050565b61202881611fe3565b811461203357600080fd5b50565b6000813590506120458161201f565b92915050565b6000806040838503121561206257612061611de0565b5b600061207085828601612036565b925050602061208185828601611f81565b9150509250929050565b6000806000606084860312156120a4576120a3611de0565b5b60006120b286828701612036565b93505060206120c386828701612036565b92505060406120d486828701611f81565b9150509250925092565b600080fd5b600080fd5b7f4e487b7100000000000000000000000000000000000000000000000000000000600052604160045260246000fd5b61212082611ef4565b810181811067ffffffffffffffff8211171561213f5761213e6120e8565b5b80604052505050565b6000612152611dd6565b905061215e8282612117565b919050565b600067ffffffffffffffff82111561217e5761217d6120e8565b5b61218782611ef4565b9050602081019050919050565b82818337600083830152505050565b60006121b66121b184612163565b612148565b9050828152602081018484840111156121d2576121d16120e3565b5b6121dd848285612194565b509392505050565b600082601f8301126121fa576121f96120de565b5b813561220a8482602086016121a3565b91505092915050565b60006020828403121561222957612228611de0565b5b600082013567ffffffffffffffff81111561224757612246611de5565b5b612253848285016121e5565b91505092915050565b61226581611f60565b82525050565b6000602082019050612280600083018461225c565b92915050565b60006020828403121561229c5761229b611de0565b5b60006122aa84828501612036565b91505092915050565b6122bc81611e6f565b81146122c757600080fd5b50565b6000813590506122d9816122b3565b92915050565b600080604083850312156122f6576122f5611de0565b5b600061230485828601612036565b9250506020612315858286016122ca565b9150509250929050565b600067ffffffffffffffff82111561233a576123396120e8565b5b61234382611ef4565b9050602081019050919050565b600061236361235e8461231f565b612148565b90508281526020810184848401111561237f5761237e6120e3565b5b61238a848285612194565b509392505050565b600082601f8301126123a7576123a66120de565b5b81356123b7848260208601612350565b91505092915050565b600080600080608085870312156123da576123d9611de0565b5b60006123e887828801612036565b94505060206123f987828801612036565b935050604061240a87828801611f81565b925050606085013567ffffffffffffffff81111561242b5761242a611de5565b5b61243787828801612392565b91505092959194509250565b6000806040838503121561245a57612459611de0565b5b600061246885828601612036565b925050602083013567ffffffffffffffff81111561248957612488611de5565b5b612495858286016121e5565b9150509250929050565b600080604083850312156124b6576124b5611de0565b5b60006124c485828601612036565b92505060206124d585828601612036565b9150509250929050565b7f4e487b7100000000000000000000000000000000000000000000000000000000600052602260045260246000fd5b6000600282049050600182168061252657607f821691505b6020821081141561253a576125396124df565b5b50919050565b7f4552433732313a20617070726f76616c20746f2063757272656e74206f776e6560008201527f7200000000000000000000000000000000000000000000000000000000000000602082015250565b600061259c602183611eb0565b91506125a782612540565b604082019050919050565b600060208201905081810360008301526125cb8161258f565b9050919050565b7f4552433732313a20617070726f76652063616c6c6572206973206e6f7420746f60008201527f6b656e206f776e6572206e6f7220617070726f76656420666f7220616c6c0000602082015250565b600061262e603e83611eb0565b9150612639826125d2565b604082019050919050565b6000602082019050818103600083015261265d81612621565b9050919050565b7f4552433732313a2063616c6c6572206973206e6f7420746f6b656e206f776e6560008201527f72206e6f7220617070726f766564000000000000000000000000000000000000602082015250565b60006126c0602e83611eb0565b91506126cb82612664565b604082019050919050565b600060208201905081810360008301526126ef816126b3565b9050919050565b7f4552433732313a20696e76616c696420746f6b656e2049440000000000000000600082015250565b600061272c601883611eb0565b9150612737826126f6565b602082019050919050565b6000602082019050818103600083015261275b8161271f565b9050919050565b7f4552433732313a2061646472657373207a65726f206973206e6f74206120766160008201527f6c6964206f776e65720000000000000000000000000000000000000000000000602082015250565b60006127be602983611eb0565b91506127c982612762565b604082019050919050565b600060208201905081810360008301526127ed816127b1565b9050919050565b7f4f776e61626c653a206e6577206f776e657220697320746865207a65726f206160008201527f6464726573730000000000000000000000000000000000000000000000000000602082015250565b6000612850602683611eb0565b915061285b826127f4565b604082019050919050565b6000602082019050818103600083015261287f81612843565b9050919050565b7f4552433732313a207472616e736665722066726f6d20696e636f72726563742060008201527f6f776e6572000000000000000000000000000000000000000000000000000000602082015250565b60006128e2602583611eb0565b91506128ed82612886565b604082019050919050565b60006020820190508181036000830152612911816128d5565b9050919050565b7f4552433732313a207472616e7366657220746f20746865207a65726f2061646460008201527f7265737300000000000000000000000000000000000000000000000000000000602082015250565b6000612974602483611eb0565b915061297f82612918565b604082019050919050565b600060208201905081810360008301526129a381612967565b9050919050565b7f4e487b7100000000000000000000000000000000000000000000000000000000600052601160045260246000fd5b60006129e482611f60565b91506129ef83611f60565b925082821015612a0257612a016129aa565b5b828203905092915050565b6000612a1882611f60565b9150612a2383611f60565b9250827fffffffffffffffffffffffffffffffffffffffffffffffffffffffffffffffff03821115612a5857612a576129aa565b5b828201905092915050565b7f4552433732313a206d696e7420746f20746865207a65726f2061646472657373600082015250565b6000612a99602083611eb0565b9150612aa482612a63565b602082019050919050565b60006020820190508181036000830152612ac881612a8c565b9050919050565b7f4552433732313a20746f6b656e20616c7265616479206d696e74656400000000600082015250565b6000612b05601c83611eb0565b9150612b1082612acf565b602082019050919050565b60006020820190508181036000830152612b3481612af8565b9050919050565b7f45524337323155524953746f726167653a2055524920736574206f66206e6f6e60008201527f6578697374656e7420746f6b656e000000000000000000000000000000000000602082015250565b6000612b97602e83611eb0565b9150612ba282612b3b565b604082019050919050565b60006020820190508181036000830152612bc681612b8a565b9050919050565b7f4f776e61626c653a2063616c6c6572206973206e6f7420746865206f776e6572600082015250565b6000612c03602083611eb0565b9150612c0e82612bcd565b602082019050919050565b60006020820190508181036000830152612c3281612bf6565b9050919050565b7f4552433732313a20617070726f766520746f2063616c6c657200000000000000600082015250565b6000612c6f601983611eb0565b9150612c7a82612c39565b602082019050919050565b60006020820190508181036000830152612c9e81612c62565b9050919050565b7f4552433732313a207472616e7366657220746f206e6f6e20455243373231526560008201527f63656976657220696d706c656d656e7465720000000000000000000000000000602082015250565b6000612d01603283611eb0565b9150612d0c82612ca5565b604082019050919050565b60006020820190508181036000830152612d3081612cf4565b9050919050565b600081905092915050565b6000612d4d82611ea5565b612d578185612d37565b9350612d67818560208601611ec1565b80840191505092915050565b6000612d7f8285612d42565b9150612d8b8284612d42565b91508190509392505050565b600081519050919050565b600082825260208201905092915050565b6000612dbe82612d97565b612dc88185612da2565b9350612dd8818560208601611ec1565b612de181611ef4565b840191505092915050565b6000608082019050612e016000830187611ff5565b612e0e6020830186611ff5565b612e1b604083018561225c565b8181036060830152612e2d8184612db3565b905095945050505050565b600081519050612e4781611e16565b92915050565b600060208284031215612e6357612e62611de0565b5b6000612e7184828501612e38565b91505092915050565b6000612e8582611f60565b91507fffffffffffffffffffffffffffffffffffffffffffffffffffffffffffffffff821415612eb857612eb76129aa565b5b600182019050919050565b7f4e487b7100000000000000000000000000000000000000000000000000000000600052601260045260246000fd5b6000612efd82611f60565b9150612f0883611f60565b925082612f1857612f17612ec3565b5b828204905092915050565b6000612f2e82611f60565b9150612f3983611f60565b925082612f4957612f48612ec3565b5b828206905092915050565b7f4e487b7100000000000000000000000000000000000000000000000000000000600052603260045260246000fdfea26469706673582212204ae4a7cc04b2598b4d25feaf0b6b7ec1a794c89c5e542943200c151891c8572c64736f6c63430008090033",
  "linkReferences": {},
  "deployedLinkReferences": {}
}