{
  "_format": "hh-sol-artifact-1",
  "contractName": "NFTMarket",
  "sourceName": "contracts/NFTMarket.sol",
  "abi": [
    {
      "inputs": [],
      "stateMutability": "nonpayable",
      "type": "constructor"
    },
    {
      "anonymous": false,
      "inputs": [
        {
          "indexed": true,
          "internalType": "uint256",
          "name": "itemId",
          "type": "uint256"
        },
        {
          "indexed": true,
          "internalType": "address",
          "name": "nftContract",
          "type": "address"
        },
        {
          "indexed": true,
          "internalType": "uint256",
          "name": "tokenId",
          "type": "uint256"
        },
        {
          "indexed": false,
          "internalType": "address",
          "name": "seller",
          "type": "address"
        },
        {
          "indexed": false,
          "internalType": "address",
          "name": "owner",
          "type": "address"
        },
        {
          "indexed": false,
          "internalType": "uint256",
          "name": "price",
          "type": "uint256"
        },
        {
          "indexed": false,
          "internalType": "bool",
          "name": "sold",
          "type": "bool"
        }
      ],
      "name": "MarketItemCreated",
      "type": "event"
    },
    {
      "inputs": [
        {
          "internalType": "uint256",
          "name": "itemId",
          "type": "uint256"
        }
      ],
      "name": "Relist",
      "outputs": [],
      "stateMutability": "payable",
      "type": "function"
    },
    {
      "inputs": [
        {
          "internalType": "uint256",
          "name": "itemId",
          "type": "uint256"
        }
      ],
      "name": "cancelListing",
      "outputs": [],
      "stateMutability": "payable",
      "type": "function"
    },
    {
      "inputs": [
        {
          "internalType": "address",
          "name": "nftContract",
          "type": "address"
        },
        {
          "internalType": "uint256",
          "name": "tokenId",
          "type": "uint256"
        },
        {
          "internalType": "uint256",
          "name": "price",
          "type": "uint256"
        }
      ],
      "name": "createMarketItem",
      "outputs": [],
      "stateMutability": "payable",
      "type": "function"
    },
    {
      "inputs": [
        {
          "internalType": "address",
          "name": "nftContract",
          "type": "address"
        },
        {
          "internalType": "uint256",
          "name": "itemId",
          "type": "uint256"
        }
      ],
      "name": "createMarketSale",
      "outputs": [],
      "stateMutability": "payable",
      "type": "function"
    },
    {
      "inputs": [],
      "name": "fetchItemsCreated",
      "outputs": [
        {
          "components": [
            {
              "internalType": "uint256",
              "name": "itemId",
              "type": "uint256"
            },
            {
              "internalType": "address",
              "name": "nftContract",
              "type": "address"
            },
            {
              "internalType": "uint256",
              "name": "tokenId",
              "type": "uint256"
            },
            {
              "internalType": "address payable",
              "name": "seller",
              "type": "address"
            },
            {
              "internalType": "address payable",
              "name": "owner",
              "type": "address"
            },
            {
              "internalType": "uint256",
              "name": "price",
              "type": "uint256"
            },
            {
              "internalType": "bool",
              "name": "sold",
              "type": "bool"
            }
          ],
          "internalType": "struct NFTMarket.MarketItem[]",
          "name": "",
          "type": "tuple[]"
        }
      ],
      "stateMutability": "view",
      "type": "function"
    },
    {
      "inputs": [],
      "name": "fetchMarketItems",
      "outputs": [
        {
          "components": [
            {
              "internalType": "uint256",
              "name": "itemId",
              "type": "uint256"
            },
            {
              "internalType": "address",
              "name": "nftContract",
              "type": "address"
            },
            {
              "internalType": "uint256",
              "name": "tokenId",
              "type": "uint256"
            },
            {
              "internalType": "address payable",
              "name": "seller",
              "type": "address"
            },
            {
              "internalType": "address payable",
              "name": "owner",
              "type": "address"
            },
            {
              "internalType": "uint256",
              "name": "price",
              "type": "uint256"
            },
            {
              "internalType": "bool",
              "name": "sold",
              "type": "bool"
            }
          ],
          "internalType": "struct NFTMarket.MarketItem[]",
          "name": "",
          "type": "tuple[]"
        }
      ],
      "stateMutability": "view",
      "type": "function"
    },
    {
      "inputs": [],
      "name": "fetchMyNFTs",
      "outputs": [
        {
          "components": [
            {
              "internalType": "uint256",
              "name": "itemId",
              "type": "uint256"
            },
            {
              "internalType": "address",
              "name": "nftContract",
              "type": "address"
            },
            {
              "internalType": "uint256",
              "name": "tokenId",
              "type": "uint256"
            },
            {
              "internalType": "address payable",
              "name": "seller",
              "type": "address"
            },
            {
              "internalType": "address payable",
              "name": "owner",
              "type": "address"
            },
            {
              "internalType": "uint256",
              "name": "price",
              "type": "uint256"
            },
            {
              "internalType": "bool",
              "name": "sold",
              "type": "bool"
            }
          ],
          "internalType": "struct NFTMarket.MarketItem[]",
          "name": "",
          "type": "tuple[]"
        }
      ],
      "stateMutability": "view",
      "type": "function"
    },
    {
      "inputs": [],
      "name": "getListingPrice",
      "outputs": [
        {
          "internalType": "uint256",
          "name": "",
          "type": "uint256"
        }
      ],
      "stateMutability": "view",
      "type": "function"
    }
  ],
  "bytecode": "0x60806040526405d21dba0060055534801561001957600080fd5b50600160008190555033600460006101000a81548173ffffffffffffffffffffffffffffffffffffffff021916908373ffffffffffffffffffffffffffffffffffffffff160217905550611abb806100726000396000f3fe60806040526004361061007b5760003560e01c806358eb2df51161004e57806358eb2df51461011d578063c23b139e14610139578063da8c297114610155578063f064c32e146101715761007b565b80630f08efe01461008057806312e85585146100ab578063202e3740146100d6578063305a67a814610101575b600080fd5b34801561008c57600080fd5b5061009561019c565b6040516100a291906114a9565b60405180910390f35b3480156100b757600080fd5b506100c061047b565b6040516100cd91906114da565b60405180910390f35b3480156100e257600080fd5b506100eb610485565b6040516100f891906114a9565b60405180910390f35b61011b60048036038101906101169190611526565b6107e7565b005b6101376004803603810190610132919061157f565b610849565b005b610153600480360381019061014e91906115d2565b610bad565b005b61016f600480360381019061016a9190611526565b610e10565b005b34801561017d57600080fd5b50610186610e73565b60405161019391906114a9565b60405180910390f35b606060006101aa60016111d5565b905060006101b860026111d5565b6101c260016111d5565b6101cc9190611641565b90506000808267ffffffffffffffff8111156101eb576101ea611675565b5b60405190808252806020026020018201604052801561022457816020015b610211611255565b8152602001906001900390816102095790505b50905060005b8481101561047057600073ffffffffffffffffffffffffffffffffffffffff166006600060018461025b91906116a4565b815260200190815260200160002060040160009054906101000a900473ffffffffffffffffffffffffffffffffffffffff1673ffffffffffffffffffffffffffffffffffffffff16141561045d576000600660006001846102bc91906116a4565b81526020019081526020016000206000015490506000600660008381526020019081526020016000209050806040518060e0016040529081600082015481526020016001820160009054906101000a900473ffffffffffffffffffffffffffffffffffffffff1673ffffffffffffffffffffffffffffffffffffffff1673ffffffffffffffffffffffffffffffffffffffff168152602001600282015481526020016003820160009054906101000a900473ffffffffffffffffffffffffffffffffffffffff1673ffffffffffffffffffffffffffffffffffffffff1673ffffffffffffffffffffffffffffffffffffffff1681526020016004820160009054906101000a900473ffffffffffffffffffffffffffffffffffffffff1673ffffffffffffffffffffffffffffffffffffffff1673ffffffffffffffffffffffffffffffffffffffff168152602001600582015481526020016006820160009054906101000a900460ff161515151581525050848681518110610441576104406116fa565b5b6020026020010181905250848061045790611729565b95505050505b808061046890611729565b91505061022a565b508094505050505090565b6000600554905090565b6060600061049360016111d5565b905060008060005b8381101561053b573373ffffffffffffffffffffffffffffffffffffffff16600660006001846104cb91906116a4565b815260200190815260200160002060040160009054906101000a900473ffffffffffffffffffffffffffffffffffffffff1673ffffffffffffffffffffffffffffffffffffffff16141561052857828061052490611729565b9350505b808061053390611729565b91505061049b565b5060008267ffffffffffffffff81111561055857610557611675565b5b60405190808252806020026020018201604052801561059157816020015b61057e611255565b8152602001906001900390816105765790505b50905060005b848110156107dc573373ffffffffffffffffffffffffffffffffffffffff16600660006001846105c791906116a4565b815260200190815260200160002060040160009054906101000a900473ffffffffffffffffffffffffffffffffffffffff1673ffffffffffffffffffffffffffffffffffffffff1614156107c95760006006600060018461062891906116a4565b81526020019081526020016000206000015490506000600660008381526020019081526020016000209050806040518060e0016040529081600082015481526020016001820160009054906101000a900473ffffffffffffffffffffffffffffffffffffffff1673ffffffffffffffffffffffffffffffffffffffff1673ffffffffffffffffffffffffffffffffffffffff168152602001600282015481526020016003820160009054906101000a900473ffffffffffffffffffffffffffffffffffffffff1673ffffffffffffffffffffffffffffffffffffffff1673ffffffffffffffffffffffffffffffffffffffff1681526020016004820160009054906101000a900473ffffffffffffffffffffffffffffffffffffffff1673ffffffffffffffffffffffffffffffffffffffff1673ffffffffffffffffffffffffffffffffffffffff168152602001600582015481526020016006820160009054906101000a900460ff1615151515815250508486815181106107ad576107ac6116fa565b5b602002602001018190525084806107c390611729565b95505050505b80806107d490611729565b915050610597565b508094505050505090565b306006600083815260200190815260200160002060040160006101000a81548173ffffffffffffffffffffffffffffffffffffffff021916908373ffffffffffffffffffffffffffffffffffffffff16021790555061084660026111e3565b50565b6002600054141561088f576040517f08c379a0000000000000000000000000000000000000000000000000000000008152600401610886906117cf565b60405180910390fd5b6002600081905550600081116108da576040517f08c379a00000000000000000000000000000000000000000000000000000000081526004016108d19061183b565b60405180910390fd5b600554341461091e576040517f08c379a0000000000000000000000000000000000000000000000000000000008152600401610915906118cd565b60405180910390fd5b61092860016111e3565b600061093460016111d5565b90506040518060e001604052808281526020018573ffffffffffffffffffffffffffffffffffffffff1681526020018481526020013373ffffffffffffffffffffffffffffffffffffffff168152602001600073ffffffffffffffffffffffffffffffffffffffff16815260200183815260200160001515815250600660008581526020019081526020016000206000820151816000015560208201518160010160006101000a81548173ffffffffffffffffffffffffffffffffffffffff021916908373ffffffffffffffffffffffffffffffffffffffff1602179055506040820151816002015560608201518160030160006101000a81548173ffffffffffffffffffffffffffffffffffffffff021916908373ffffffffffffffffffffffffffffffffffffffff16021790555060808201518160040160006101000a81548173ffffffffffffffffffffffffffffffffffffffff021916908373ffffffffffffffffffffffffffffffffffffffff16021790555060a0820151816005015560c08201518160060160006101000a81548160ff0219169083151502179055509050508373ffffffffffffffffffffffffffffffffffffffff166323b872dd3330866040518463ffffffff1660e01b8152600401610b15939291906118fc565b600060405180830381600087803b158015610b2f57600080fd5b505af1158015610b43573d6000803e3d6000fd5b50505050828473ffffffffffffffffffffffffffffffffffffffff16827f045dfa01dcba2b36aba1d3dc4a874f4b0c5d2fbeb8d2c4b34a7d88c8d8f929d1336000876000604051610b979493929190611942565b60405180910390a4506001600081905550505050565b600060066000838152602001908152602001600020600501549050600060066000848152602001908152602001600020600201549050813414610c25576040517f08c379a0000000000000000000000000000000000000000000000000000000008152600401610c1c906119f9565b60405180910390fd5b6006600084815260200190815260200160002060030160009054906101000a900473ffffffffffffffffffffffffffffffffffffffff1673ffffffffffffffffffffffffffffffffffffffff166108fc349081150290604051600060405180830381858888f19350505050158015610ca1573d6000803e3d6000fd5b50336006600085815260200190815260200160002060040160006101000a81548173ffffffffffffffffffffffffffffffffffffffff021916908373ffffffffffffffffffffffffffffffffffffffff16021790555060016006600085815260200190815260200160002060060160006101000a81548160ff021916908315150217905550610d3060026111e3565b8373ffffffffffffffffffffffffffffffffffffffff166323b872dd3033846040518463ffffffff1660e01b8152600401610d6d939291906118fc565b600060405180830381600087803b158015610d8757600080fd5b505af1158015610d9b573d6000803e3d6000fd5b50505050600460009054906101000a900473ffffffffffffffffffffffffffffffffffffffff1673ffffffffffffffffffffffffffffffffffffffff166108fc6005549081150290604051600060405180830381858888f19350505050158015610e09573d6000803e3d6000fd5b5050505050565b60006006600083815260200190815260200160002060040160006101000a81548173ffffffffffffffffffffffffffffffffffffffff021916908373ffffffffffffffffffffffffffffffffffffffff160217905550610e7060026111f9565b50565b60606000610e8160016111d5565b905060008060005b83811015610f29573373ffffffffffffffffffffffffffffffffffffffff1660066000600184610eb991906116a4565b815260200190815260200160002060030160009054906101000a900473ffffffffffffffffffffffffffffffffffffffff1673ffffffffffffffffffffffffffffffffffffffff161415610f16578280610f1290611729565b9350505b8080610f2190611729565b915050610e89565b5060008267ffffffffffffffff811115610f4657610f45611675565b5b604051908082528060200260200182016040528015610f7f57816020015b610f6c611255565b815260200190600190039081610f645790505b50905060005b848110156111ca573373ffffffffffffffffffffffffffffffffffffffff1660066000600184610fb591906116a4565b815260200190815260200160002060030160009054906101000a900473ffffffffffffffffffffffffffffffffffffffff1673ffffffffffffffffffffffffffffffffffffffff1614156111b75760006006600060018461101691906116a4565b81526020019081526020016000206000015490506000600660008381526020019081526020016000209050806040518060e0016040529081600082015481526020016001820160009054906101000a900473ffffffffffffffffffffffffffffffffffffffff1673ffffffffffffffffffffffffffffffffffffffff1673ffffffffffffffffffffffffffffffffffffffff168152602001600282015481526020016003820160009054906101000a900473ffffffffffffffffffffffffffffffffffffffff1673ffffffffffffffffffffffffffffffffffffffff1673ffffffffffffffffffffffffffffffffffffffff1681526020016004820160009054906101000a900473ffffffffffffffffffffffffffffffffffffffff1673ffffffffffffffffffffffffffffffffffffffff1673ffffffffffffffffffffffffffffffffffffffff168152602001600582015481526020016006820160009054906101000a900460ff16151515158152505084868151811061119b5761119a6116fa565b5b602002602001018190525084806111b190611729565b95505050505b80806111c290611729565b915050610f85565b508094505050505090565b600081600001549050919050565b6001816000016000828254019250508190555050565b60008160000154905060008111611245576040517f08c379a000000000000000000000000000000000000000000000000000000000815260040161123c90611a65565b60405180910390fd5b6001810382600001819055505050565b6040518060e0016040528060008152602001600073ffffffffffffffffffffffffffffffffffffffff16815260200160008152602001600073ffffffffffffffffffffffffffffffffffffffff168152602001600073ffffffffffffffffffffffffffffffffffffffff168152602001600081526020016000151581525090565b600081519050919050565b600082825260208201905092915050565b6000819050602082019050919050565b6000819050919050565b61131581611302565b82525050565b600073ffffffffffffffffffffffffffffffffffffffff82169050919050565b60006113468261131b565b9050919050565b6113568161133b565b82525050565b60006113678261131b565b9050919050565b6113778161135c565b82525050565b60008115159050919050565b6113928161137d565b82525050565b60e0820160008201516113ae600085018261130c565b5060208201516113c1602085018261134d565b5060408201516113d4604085018261130c565b5060608201516113e7606085018261136e565b5060808201516113fa608085018261136e565b5060a082015161140d60a085018261130c565b5060c082015161142060c0850182611389565b50505050565b60006114328383611398565b60e08301905092915050565b6000602082019050919050565b6000611456826112d6565b61146081856112e1565b935061146b836112f2565b8060005b8381101561149c5781516114838882611426565b975061148e8361143e565b92505060018101905061146f565b5085935050505092915050565b600060208201905081810360008301526114c3818461144b565b905092915050565b6114d481611302565b82525050565b60006020820190506114ef60008301846114cb565b92915050565b600080fd5b61150381611302565b811461150e57600080fd5b50565b600081359050611520816114fa565b92915050565b60006020828403121561153c5761153b6114f5565b5b600061154a84828501611511565b91505092915050565b61155c8161133b565b811461156757600080fd5b50565b60008135905061157981611553565b92915050565b600080600060608486031215611598576115976114f5565b5b60006115a68682870161156a565b93505060206115b786828701611511565b92505060406115c886828701611511565b9150509250925092565b600080604083850312156115e9576115e86114f5565b5b60006115f78582860161156a565b925050602061160885828601611511565b9150509250929050565b7f4e487b7100000000000000000000000000000000000000000000000000000000600052601160045260246000fd5b600061164c82611302565b915061165783611302565b92508282101561166a57611669611612565b5b828203905092915050565b7f4e487b7100000000000000000000000000000000000000000000000000000000600052604160045260246000fd5b60006116af82611302565b91506116ba83611302565b9250827fffffffffffffffffffffffffffffffffffffffffffffffffffffffffffffffff038211156116ef576116ee611612565b5b828201905092915050565b7f4e487b7100000000000000000000000000000000000000000000000000000000600052603260045260246000fd5b600061173482611302565b91507fffffffffffffffffffffffffffffffffffffffffffffffffffffffffffffffff82141561176757611766611612565b5b600182019050919050565b600082825260208201905092915050565b7f5265656e7472616e637947756172643a207265656e7472616e742063616c6c00600082015250565b60006117b9601f83611772565b91506117c482611783565b602082019050919050565b600060208201905081810360008301526117e8816117ac565b9050919050565b7f7072696365206d757374206265206174206c65617374203120756e6974000000600082015250565b6000611825601d83611772565b9150611830826117ef565b602082019050919050565b6000602082019050818103600083015261185481611818565b9050919050565b7f7072696365206d75737420626520657175616c20746f206c697374696e67205060008201527f7269636500000000000000000000000000000000000000000000000000000000602082015250565b60006118b7602483611772565b91506118c28261185b565b604082019050919050565b600060208201905081810360008301526118e6816118aa565b9050919050565b6118f68161133b565b82525050565b600060608201905061191160008301866118ed565b61191e60208301856118ed565b61192b60408301846114cb565b949350505050565b61193c8161137d565b82525050565b600060808201905061195760008301876118ed565b61196460208301866118ed565b61197160408301856114cb565b61197e6060830184611933565b95945050505050565b7f506c65617365207375626d69742074686520726571756972656420616d6f756e60008201527f7400000000000000000000000000000000000000000000000000000000000000602082015250565b60006119e3602183611772565b91506119ee82611987565b604082019050919050565b60006020820190508181036000830152611a12816119d6565b9050919050565b7f436f756e7465723a2064656372656d656e74206f766572666c6f770000000000600082015250565b6000611a4f601b83611772565b9150611a5a82611a19565b602082019050919050565b60006020820190508181036000830152611a7e81611a42565b905091905056fea26469706673582212205d5c2b2cf98e5d984915cb103b5c281b891940d11b6730de6a4a9a7f71b01f0f64736f6c63430008090033",
  "linkReferences": {},
  "deployedLinkReferences": {}
}